{"abi":[{"type":"constructor","inputs":[{"name":"policyAddress","type":"address","internalType":"address"}],"stateMutability":"nonpayable"},{"type":"function","name":"executeForKernel","inputs":[{"name":"sessionId","type":"bytes32","internalType":"bytes32"},{"name":"target","type":"address","internalType":"address"},{"name":"value","type":"uint256","internalType":"uint256"},{"name":"data","type":"bytes","internalType":"bytes"}],"outputs":[{"name":"returnData","type":"bytes","internalType":"bytes"}],"stateMutability":"nonpayable"},{"type":"function","name":"executeForSafe","inputs":[{"name":"sessionId","type":"bytes32","internalType":"bytes32"},{"name":"target","type":"address","internalType":"address"},{"name":"value","type":"uint256","internalType":"uint256"},{"name":"data","type":"bytes","internalType":"bytes"}],"outputs":[{"name":"returnData","type":"bytes","internalType":"bytes"}],"stateMutability":"nonpayable"},{"type":"function","name":"executeTokenForKernel","inputs":[{"name":"sessionId","type":"bytes32","internalType":"bytes32"},{"name":"target","type":"address","internalType":"address"},{"name":"tokenAmount","type":"uint256","internalType":"uint256"},{"name":"data","type":"bytes","internalType":"bytes"}],"outputs":[{"name":"returnData","type":"bytes","internalType":"bytes"}],"stateMutability":"nonpayable"},{"type":"function","name":"executeTokenForSafe","inputs":[{"name":"sessionId","type":"bytes32","internalType":"bytes32"},{"name":"target","type":"address","internalType":"address"},{"name":"tokenAmount","type":"uint256","internalType":"uint256"},{"name":"data","type":"bytes","internalType":"bytes"}],"outputs":[{"name":"returnData","type":"bytes","internalType":"bytes"}],"stateMutability":"nonpayable"},{"type":"function","name":"policy","inputs":[],"outputs":[{"name":"","type":"address","internalType":"address"}],"stateMutability":"view"},{"type":"event","name":"KernelRouteExecuted","inputs":[{"name":"sessionId","type":"bytes32","indexed":true,"internalType":"bytes32"},{"name":"smartAccount","type":"address","indexed":true,"internalType":"address"},{"name":"target","type":"address","indexed":true,"internalType":"address"},{"name":"value","type":"uint256","indexed":false,"internalType":"uint256"}],"anonymous":false},{"type":"event","name":"KernelTokenRouteExecuted","inputs":[{"name":"sessionId","type":"bytes32","indexed":true,"internalType":"bytes32"},{"name":"smartAccount","type":"address","indexed":true,"internalType":"address"},{"name":"target","type":"address","indexed":true,"internalType":"address"},{"name":"tokenAmount","type":"uint256","indexed":false,"internalType":"uint256"}],"anonymous":false},{"type":"event","name":"SafeRouteExecuted","inputs":[{"name":"sessionId","type":"bytes32","indexed":true,"internalType":"bytes32"},{"name":"smartAccount","type":"address","indexed":true,"internalType":"address"},{"name":"target","type":"address","indexed":true,"internalType":"address"},{"name":"value","type":"uint256","indexed":false,"internalType":"uint256"}],"anonymous":false},{"type":"event","name":"SafeTokenRouteExecuted","inputs":[{"name":"sessionId","type":"bytes32","indexed":true,"internalType":"bytes32"},{"name":"smartAccount","type":"address","indexed":true,"internalType":"address"},{"name":"target","type":"address","indexed":true,"internalType":"address"},{"name":"tokenAmount","type":"uint256","indexed":false,"internalType":"uint256"}],"anonymous":false}],"bytecode":{"object":"0x60a0346100bb57601f61062e38819003918201601f19168301916001600160401b038311848410176100bf578084926020946040528339810103126100bb57516001600160a01b0381168082036100bb571561008b5760805260405161055a90816100d48239608051818181609a0152818161015601528181610224015281816102c601526103600152f35b60405162461bcd60e51b81526020600482015260086024820152670706f6c6963793d360c41b6044820152606490fd5b5f80fd5b634e487b7160e01b5f52604160045260245ffdfe60806040908082526004361015610014575f80fd5b5f3560e01c9081630505c8c91461034e575080630e23e986146102ac57806327d5f06c146101de5780634fbbec4a1461013c57637e8cdf4214610055575f80fd5b34610138575f610094916100683661038f565b8551634eace0a560e01b815297939692936001600160a01b0393928992839291878b8a600487016104e3565b038183857f0000000000000000000000000000000000000000000000000000000000000000165af194851561012e57610106965f9661010a575b50845192835216917f04fba40263499c8073c403645f117531d497a0571cb58b192668db2724bdcbd660203393a45191829182610415565b0390f35b6101279196503d805f833e61011f8183610441565b810190610477565b945f6100ce565b84513d5f823e3d90fd5b5f80fd5b5034610138575f610150916100683661038f565b038183857f0000000000000000000000000000000000000000000000000000000000000000165af194851561012e57610106965f966101c2575b50845192835216917ffafd169daa0d5a2996c95591b09188b2a9e80d74e449f9250158873bd3256d2260203393a45191829182610415565b6101d79196503d805f833e61011f8183610441565b945f61018a565b5034610138575f61021e916101f23661038f565b8551631874adbb60e11b815297939692936001600160a01b0393928992839291878b8a600487016104e3565b038183857f0000000000000000000000000000000000000000000000000000000000000000165af194851561012e57610106965f96610290575b50845192835216917faad3b408cf30ff800d67f3e696153fd378048b02d982a0c1c429114f73f2786060203393a45191829182610415565b6102a59196503d805f833e61011f8183610441565b945f610258565b5034610138575f6102c0916101f23661038f565b038183857f0000000000000000000000000000000000000000000000000000000000000000165af194851561012e57610106965f96610332575b50845192835216917f118cc58d3a5cf0066083c4e3810c75c98a68c7de49d540e80ca9e2e5e1a6cc0160203393a45191829182610415565b6103479196503d805f833e61011f8183610441565b945f6102fa565b34610138575f366003190112610138577f00000000000000000000000000000000000000000000000000000000000000006001600160a01b03168152602090f35b608060031982011261013857600435916024356001600160a01b038116810361013857916044359160643567ffffffffffffffff9283821161013857806023830112156101385781600401359384116101385760248483010111610138576024019190565b5f5b8381106104055750505f910152565b81810151838201526020016103f6565b6040916020825261043581518092816020860152602086860191016103f4565b601f01601f1916010190565b90601f8019910116810190811067ffffffffffffffff82111761046357604052565b634e487b7160e01b5f52604160045260245ffd5b60208183031261013857805167ffffffffffffffff9182821161013857019082601f8301121561013857815190811161046357604051926104c2601f8301601f191660200185610441565b81845260208284010111610138576104e091602080850191016103f4565b90565b93909285939260a096938652600180881b03166020860152604085015260806060850152816080850152848401375f828201840152601f01601f191601019056fea2646970667358221220c0371b7d3e76dd5f01301a7dbb7a337bd9e2367faaede417a8e1231e934a28e764736f6c63430008180033","linkReferences":{}},"methodIdentifiers":{"executeForKernel(bytes32,address,uint256,bytes)":"27d5f06c","executeForSafe(bytes32,address,uint256,bytes)":"0e23e986","executeTokenForKernel(bytes32,address,uint256,bytes)":"4fbbec4a","executeTokenForSafe(bytes32,address,uint256,bytes)":"7e8cdf42","policy()":"0505c8c9"},"id":0}