{"abi":[{"type":"constructor","inputs":[],"stateMutability":"nonpayable"},{"type":"receive","stateMutability":"payable"},{"type":"function","name":"DOMAIN_SEPARATOR","inputs":[],"outputs":[{"name":"","type":"bytes32","internalType":"bytes32"}],"stateMutability":"view"},{"type":"function","name":"admin","inputs":[],"outputs":[{"name":"","type":"address","internalType":"address"}],"stateMutability":"view"},{"type":"function","name":"allowAllSelectorsForTarget","inputs":[{"name":"","type":"bytes32","internalType":"bytes32"},{"name":"","type":"address","internalType":"address"}],"outputs":[{"name":"","type":"bool","internalType":"bool"}],"stateMutability":"view"},{"type":"function","name":"allowedSelectors","inputs":[{"name":"","type":"bytes32","internalType":"bytes32"},{"name":"","type":"address","internalType":"address"},{"name":"","type":"bytes4","internalType":"bytes4"}],"outputs":[{"name":"","type":"bool","internalType":"bool"}],"stateMutability":"view"},{"type":"function","name":"allowedTargets","inputs":[{"name":"","type":"bytes32","internalType":"bytes32"},{"name":"","type":"address","internalType":"address"}],"outputs":[{"name":"","type":"bool","internalType":"bool"}],"stateMutability":"view"},{"type":"function","name":"createSession","inputs":[{"name":"sessionId","type":"bytes32","internalType":"bytes32"},{"name":"cfg","type":"tuple","internalType":"struct TxVetoSessionPolicy.SessionConfigInput","components":[{"name":"owner","type":"address","internalType":"address"},{"name":"sessionKey","type":"address","internalType":"address"},{"name":"validAfter","type":"uint64","internalType":"uint64"},{"name":"validUntil","type":"uint64","internalType":"uint64"},{"name":"periodSeconds","type":"uint64","internalType":"uint64"},{"name":"maxValuePerCall","type":"uint256","internalType":"uint256"},{"name":"maxValuePerPeriod","type":"uint256","internalType":"uint256"},{"name":"spendToken","type":"address","internalType":"address"},{"name":"maxTokenPerCall","type":"uint256","internalType":"uint256"},{"name":"maxTokenPerPeriod","type":"uint256","internalType":"uint256"}]},{"name":"targets","type":"address[]","internalType":"address[]"},{"name":"selectorsByTarget","type":"bytes4[][]","internalType":"bytes4[][]"}],"outputs":[],"stateMutability":"nonpayable"},{"type":"function","name":"createSessionWithSig","inputs":[{"name":"sessionId","type":"bytes32","internalType":"bytes32"},{"name":"cfg","type":"tuple","internalType":"struct TxVetoSessionPolicy.SessionConfigInput","components":[{"name":"owner","type":"address","internalType":"address"},{"name":"sessionKey","type":"address","internalType":"address"},{"name":"validAfter","type":"uint64","internalType":"uint64"},{"name":"validUntil","type":"uint64","internalType":"uint64"},{"name":"periodSeconds","type":"uint64","internalType":"uint64"},{"name":"maxValuePerCall","type":"uint256","internalType":"uint256"},{"name":"maxValuePerPeriod","type":"uint256","internalType":"uint256"},{"name":"spendToken","type":"address","internalType":"address"},{"name":"maxTokenPerCall","type":"uint256","internalType":"uint256"},{"name":"maxTokenPerPeriod","type":"uint256","internalType":"uint256"}]},{"name":"targets","type":"address[]","internalType":"address[]"},{"name":"selectorsByTarget","type":"bytes4[][]","internalType":"bytes4[][]"},{"name":"sigDeadline","type":"uint256","internalType":"uint256"},{"name":"salt","type":"bytes32","internalType":"bytes32"},{"name":"signature","type":"bytes","internalType":"bytes"}],"outputs":[],"stateMutability":"nonpayable"},{"type":"function","name":"executeThroughSession","inputs":[{"name":"sessionId","type":"bytes32","internalType":"bytes32"},{"name":"target","type":"address","internalType":"address"},{"name":"value","type":"uint256","internalType":"uint256"},{"name":"data","type":"bytes","internalType":"bytes"}],"outputs":[{"name":"returnData","type":"bytes","internalType":"bytes"}],"stateMutability":"nonpayable"},{"type":"function","name":"executeTokenThroughSession","inputs":[{"name":"sessionId","type":"bytes32","internalType":"bytes32"},{"name":"target","type":"address","internalType":"address"},{"name":"tokenAmount","type":"uint256","internalType":"uint256"},{"name":"data","type":"bytes","internalType":"bytes"}],"outputs":[{"name":"returnData","type":"bytes","internalType":"bytes"}],"stateMutability":"nonpayable"},{"type":"function","name":"getCreateSessionDigest","inputs":[{"name":"sessionId","type":"bytes32","internalType":"bytes32"},{"name":"cfg","type":"tuple","internalType":"struct TxVetoSessionPolicy.SessionConfigInput","components":[{"name":"owner","type":"address","internalType":"address"},{"name":"sessionKey","type":"address","internalType":"address"},{"name":"validAfter","type":"uint64","internalType":"uint64"},{"name":"validUntil","type":"uint64","internalType":"uint64"},{"name":"periodSeconds","type":"uint64","internalType":"uint64"},{"name":"maxValuePerCall","type":"uint256","internalType":"uint256"},{"name":"maxValuePerPeriod","type":"uint256","internalType":"uint256"},{"name":"spendToken","type":"address","internalType":"address"},{"name":"maxTokenPerCall","type":"uint256","internalType":"uint256"},{"name":"maxTokenPerPeriod","type":"uint256","internalType":"uint256"}]},{"name":"targets","type":"address[]","internalType":"address[]"},{"name":"selectorsByTarget","type":"bytes4[][]","internalType":"bytes4[][]"},{"name":"sigDeadline","type":"uint256","internalType":"uint256"},{"name":"salt","type":"bytes32","internalType":"bytes32"}],"outputs":[{"name":"digest","type":"bytes32","internalType":"bytes32"}],"stateMutability":"view"},{"type":"function","name":"isAllowed","inputs":[{"name":"sessionId","type":"bytes32","internalType":"bytes32"},{"name":"target","type":"address","internalType":"address"},{"name":"selector","type":"bytes4","internalType":"bytes4"}],"outputs":[{"name":"allowed","type":"bool","internalType":"bool"},{"name":"reason","type":"string","internalType":"string"}],"stateMutability":"view"},{"type":"function","name":"revokeSession","inputs":[{"name":"sessionId","type":"bytes32","internalType":"bytes32"}],"outputs":[],"stateMutability":"nonpayable"},{"type":"function","name":"sessions","inputs":[{"name":"","type":"bytes32","internalType":"bytes32"}],"outputs":[{"name":"owner","type":"address","internalType":"address"},{"name":"sessionKey","type":"address","internalType":"address"},{"name":"validAfter","type":"uint64","internalType":"uint64"},{"name":"validUntil","type":"uint64","internalType":"uint64"},{"name":"periodSeconds","type":"uint64","internalType":"uint64"},{"name":"maxValuePerCall","type":"uint256","internalType":"uint256"},{"name":"maxValuePerPeriod","type":"uint256","internalType":"uint256"},{"name":"spendToken","type":"address","internalType":"address"},{"name":"maxTokenPerCall","type":"uint256","internalType":"uint256"},{"name":"maxTokenPerPeriod","type":"uint256","internalType":"uint256"},{"name":"active","type":"bool","internalType":"bool"}],"stateMutability":"view"},{"type":"function","name":"usages","inputs":[{"name":"","type":"bytes32","internalType":"bytes32"}],"outputs":[{"name":"windowStartedAt","type":"uint64","internalType":"uint64"},{"name":"nonce","type":"uint64","internalType":"uint64"},{"name":"spentInWindow","type":"uint256","internalType":"uint256"},{"name":"tokenSpentInWindow","type":"uint256","internalType":"uint256"}],"stateMutability":"view"},{"type":"function","name":"usedDigests","inputs":[{"name":"","type":"bytes32","internalType":"bytes32"}],"outputs":[{"name":"","type":"bool","internalType":"bool"}],"stateMutability":"view"},{"type":"event","name":"SessionCreated","inputs":[{"name":"sessionId","type":"bytes32","indexed":true,"internalType":"bytes32"},{"name":"owner","type":"address","indexed":true,"internalType":"address"},{"name":"sessionKey","type":"address","indexed":true,"internalType":"address"},{"name":"validAfter","type":"uint64","indexed":false,"internalType":"uint64"},{"name":"validUntil","type":"uint64","indexed":false,"internalType":"uint64"},{"name":"periodSeconds","type":"uint64","indexed":false,"internalType":"uint64"},{"name":"maxValuePerCall","type":"uint256","indexed":false,"internalType":"uint256"},{"name":"maxValuePerPeriod","type":"uint256","indexed":false,"internalType":"uint256"},{"name":"spendToken","type":"address","indexed":false,"internalType":"address"},{"name":"maxTokenPerCall","type":"uint256","indexed":false,"internalType":"uint256"},{"name":"maxTokenPerPeriod","type":"uint256","indexed":false,"internalType":"uint256"}],"anonymous":false},{"type":"event","name":"SessionCreatedBySignature","inputs":[{"name":"sessionId","type":"bytes32","indexed":true,"internalType":"bytes32"},{"name":"digest","type":"bytes32","indexed":true,"internalType":"bytes32"},{"name":"relayer","type":"address","indexed":true,"internalType":"address"}],"anonymous":false},{"type":"event","name":"SessionExecuted","inputs":[{"name":"sessionId","type":"bytes32","indexed":true,"internalType":"bytes32"},{"name":"sessionKey","type":"address","indexed":true,"internalType":"address"},{"name":"target","type":"address","indexed":true,"internalType":"address"},{"name":"selector","type":"bytes4","indexed":false,"internalType":"bytes4"},{"name":"value","type":"uint256","indexed":false,"internalType":"uint256"},{"name":"spentInWindow","type":"uint256","indexed":false,"internalType":"uint256"},{"name":"nonce","type":"uint64","indexed":false,"internalType":"uint64"}],"anonymous":false},{"type":"event","name":"SessionRevoked","inputs":[{"name":"sessionId","type":"bytes32","indexed":true,"internalType":"bytes32"},{"name":"revokedBy","type":"address","indexed":true,"internalType":"address"}],"anonymous":false},{"type":"event","name":"SessionTokenExecuted","inputs":[{"name":"sessionId","type":"bytes32","indexed":true,"internalType":"bytes32"},{"name":"sessionKey","type":"address","indexed":true,"internalType":"address"},{"name":"target","type":"address","indexed":true,"internalType":"address"},{"name":"selector","type":"bytes4","indexed":false,"internalType":"bytes4"},{"name":"token","type":"address","indexed":false,"internalType":"address"},{"name":"tokenAmount","type":"uint256","indexed":false,"internalType":"uint256"},{"name":"tokenSpentInWindow","type":"uint256","indexed":false,"internalType":"uint256"},{"name":"nonce","type":"uint64","indexed":false,"internalType":"uint64"}],"anonymous":false},{"type":"error","name":"CallFailed","inputs":[{"name":"sessionId","type":"bytes32","internalType":"bytes32"},{"name":"target","type":"address","internalType":"address"},{"name":"returnData","type":"bytes","internalType":"bytes"}]},{"type":"error","name":"InvalidSessionConfig","inputs":[]},{"type":"error","name":"InvalidSignature","inputs":[]},{"type":"error","name":"MaxTokenPerCallExceeded","inputs":[{"name":"sessionId","type":"bytes32","internalType":"bytes32"},{"name":"attempted","type":"uint256","internalType":"uint256"},{"name":"maxAllowed","type":"uint256","internalType":"uint256"}]},{"type":"error","name":"MaxValuePerCallExceeded","inputs":[{"name":"sessionId","type":"bytes32","internalType":"bytes32"},{"name":"attempted","type":"uint256","internalType":"uint256"},{"name":"maxAllowed","type":"uint256","internalType":"uint256"}]},{"type":"error","name":"PeriodBudgetExceeded","inputs":[{"name":"sessionId","type":"bytes32","internalType":"bytes32"},{"name":"attempted","type":"uint256","internalType":"uint256"},{"name":"maxAllowed","type":"uint256","internalType":"uint256"}]},{"type":"error","name":"SelectorNotAllowed","inputs":[{"name":"sessionId","type":"bytes32","internalType":"bytes32"},{"name":"target","type":"address","internalType":"address"},{"name":"selector","type":"bytes4","internalType":"bytes4"}]},{"type":"error","name":"SessionNotActive","inputs":[{"name":"sessionId","type":"bytes32","internalType":"bytes32"}]},{"type":"error","name":"SessionOutsideTimeWindow","inputs":[{"name":"sessionId","type":"bytes32","internalType":"bytes32"},{"name":"nowTs","type":"uint256","internalType":"uint256"}]},{"type":"error","name":"SignatureAlreadyUsed","inputs":[{"name":"digest","type":"bytes32","internalType":"bytes32"}]},{"type":"error","name":"SignatureExpired","inputs":[{"name":"deadline","type":"uint256","internalType":"uint256"},{"name":"nowTs","type":"uint256","internalType":"uint256"}]},{"type":"error","name":"TargetNotAllowed","inputs":[{"name":"sessionId","type":"bytes32","internalType":"bytes32"},{"name":"target","type":"address","internalType":"address"}]},{"type":"error","name":"TokenNotConfigured","inputs":[{"name":"sessionId","type":"bytes32","internalType":"bytes32"}]},{"type":"error","name":"TokenPeriodBudgetExceeded","inputs":[{"name":"sessionId","type":"bytes32","internalType":"bytes32"},{"name":"attempted","type":"uint256","internalType":"uint256"},{"name":"maxAllowed","type":"uint256","internalType":"uint256"}]},{"type":"error","name":"TokenTransferFailed","inputs":[{"name":"sessionId","type":"bytes32","internalType":"bytes32"},{"name":"token","type":"address","internalType":"address"},{"name":"amount","type":"uint256","internalType":"uint256"}]},{"type":"error","name":"Unauthorized","inputs":[]}],"bytecode":{"object":"0x60c0806040523461010f5760206013913360805261001c81610113565b828152017f54785665746f53657373696f6e506f6c696379000000000000000000000000008152206001602060405161005481610113565b82815201603160f81b815220906040519160208301917f8b73c3c69bb8fe3d512ecc4cf759cc79239f7b179b0ffacaa9a75d522b39400f8352604084015260608301524660808301523060a083015260a0825260c082019180831060018060401b038411176100fb578260405251902060a052611d7090816200012f82396080518181816101600152818161023a0152610378015260a051818181610ac201526114b30152f35b634e487b7160e01b5f52604160045260245ffd5b5f80fd5b604081019081106001600160401b038211176100fb5760405256fe6080604081815260049182361015610021575b505050361561001f575f80fd5b005b5f3560e01c90816330e95b7614610ae5575080633644e51514610aab5780634eace0a5146106d957806369e3e7af146106885780636f5bdf12146106365780636fe9d6d7146105fd57806378d2ed8e146104865780637dbd2832146103d457806392b4481d146103105780639e3f000e146102cc578063a7fed385146101ff578063c679c0ae146101bb578063d39c4de71461018f578063f851a4401461014c5763ff3ceedb146100d25780610012565b34610148576101e036600319011261014857610140366023190112610148576001600160401b0361016435818111610148576101119036908501610ed1565b9361018435928311610148576020946101306101419436908401610ed1565b916101c435946101a43594356112f8565b9051908152f35b5f80fd5b5034610148575f36600319011261014857517f00000000000000000000000000000000000000000000000000000000000000006001600160a01b03168152602090f35b503461014857602036600319011261014857602091355f526005825260ff815f20541690519015158152f35b50346101485780600319360112610148576020916101d7610dca565b90355f5260038352815f209060018060a01b03165f52825260ff815f20541690519015158152f35b503461014857602036600319011261014857813591825f525f602052815f2090600882019283549260ff8416156102b55760018060a01b03807f00000000000000000000000000000000000000000000000000000000000000001633141591826102a6575b505061029a57505060ff1916905533907f53c7d74d36edc91dbf6b53bb0ea80bbdb2ca5894d54f6f62beacc537701822fd5f80a3005b516282b42960e81b8152fd5b90915054163314155f80610264565b8151630af1496960e11b8152808401879052602490fd5b50346101485780600319360112610148576020916102e8610dca565b90355f5260028352815f209060018060a01b03165f52825260ff815f20541690519015158152f35b5034610148576101a036600319011261014857610140366023190112610148576001600160401b039061016435828111610148576103519036908501610ed1565b9092610184359081116101485761036b9036908601610ed1565b93909260018060a01b03807f00000000000000000000000000000000000000000000000000000000000000001633141590816103c0575b506103b2575061001f94356117ac565b516282b42960e81b81528590fd5b90506103ca6111f8565b163314155f6103a2565b5034610148576020366003190112610148578161016092355f525f602052815f2060018060a01b039182825416936001830154916001600160401b03906002850154916003860154918601549287600588015416948260068901549760ff600860078c01549b0154169a83519c8d52811660208d015260a01c16818b015282821660608b01521c16608088015260a087015260c086015260e08501526101008401526101208301521515610140820152f35b50346101485761020036600319011261014857813590610140366023190112610148576001600160401b039061016435828111610148576104ca9036908601610ed1565b61018492919235848111610148576104e59036908801610ed1565b9390926101a435956101e435908111610148576105059036908a01610de0565b90968042116105e1578861052191888888886101c435956112f8565b96875f52600560205260ff835f2054166105ca576001600160a01b0391829161054b91908a6116a4565b1680159182156105b5575b50506105a6578561057e969798505f5260056020525f20600160ff19825416179055866117ac565b33917fe89adf1fb7c68a5688662298b7cf6acbd3da50b85d2c4cd86f460d2843680f8f5f80a4005b51638baa579f60e01b81528790fd5b9091506105c06111f8565b1614155f80610556565b82516360cc99ef60e11b8152808b01899052602490fd5b89604491845191630f88f04960e41b8352820152426024820152fd5b50346101485761063261061861061236610e96565b91611054565b839291925193849315158452806020850152830190610e58565b0390f35b503461014857602036600319011261014857608091355f526001602052805f20908154916001600160401b039160026001830154920154928151948181168652821c1660208501528301526060820152f35b50346101485760209161069a36610e96565b5f9283529285528382206001600160a01b03909116825284528281206001600160e01b0319909216815290835281902054905160ff9190911615158152f35b5034610148576106e836610e0d565b9193805f969496526020945f8652845f2060ff60088201541615610a945760018101546001600160a01b03999092908a84163303610a87576001600160401b03809460a01c1642108015610a78575b610a5b57845f5260028952875f20968b8b1697885f528a5260ff895f20541615610a315790816107688d938961124f565b97875f5260038c528a5f208a5f528c5260ff8b5f205416156109bf575b600586019d8e5416156109a857600686015480861161097d5750875f5260018c528a5f20956107b5428883611260565b6107c3866002890154610f01565b600782015480821161095157508f60648f928f908f938a80918f8f6107f66107fc925f9760028401558254891c16610f22565b90610f3a565b5416965416915195869485936323b872dd60e01b85528b85015260248401528b60448401525af1908115610947575f91610911575b50156108ea578c825f80949381948f519384928337810182815203925af19a610858610fcd565b9b156108c957505061063298999a54169260028301549254881c169287519563ffffffff60e01b1686528986015286850152606084015260808301527fc4d289dedb294e827f5d65dda710f12609883f55c68d399d2fc7d18b4d7b103760a03393a451928284938452830190610e58565b906108e68c88938c519485946353f4183b60e11b8652850161100b565b0390fd5b50508289876064948f5416915193636ed4f99760e11b855284015260248301526044820152fd5b90508c81813d8311610940575b6109288183610fac565b8101031261014857518015158103610148575f610831565b503d61091e565b8c513d5f823e3d90fd5b8d51633623338360e21b81528087018c8152602081019390935260408301919091529081906060010390fd5b8b51633274e7e760e21b81528085018a81526020810188905260408101929092529081906060010390fd5b8a51632324aecb60e01b8152808401899052602490fd5b90919250865f52828b52895f20895f528b52895f2063ffffffff60e01b89165f528b5260ff8a5f205416156109f757908c9291610785565b8951630c796df760e01b81528084018881526001600160a01b038e1660208201526001600160e01b03198a16604082015281906060010390fd5b8851630a9ba26760e41b81528083018781526001600160a01b038d16602082015281906040010390fd5b8751633c7a705d60e21b8152908101859052426024820152604490fd5b50836002840154164211610737565b87516282b42960e81b8152fd5b8551630af1496960e11b8152808a01849052602490fd5b5034610148575f36600319011261014857602090517f00000000000000000000000000000000000000000000000000000000000000008152f35b82843461014857610af536610e0d565b929593909196815f526020955f8752855f209160ff60088401541615610db7575060018201546001600160a01b03959091908683163303610da9576001600160401b03809360a01c1642108015610d9a575b610d7d57845f5260028952875f20968a1696875f52895260ff885f20541615610d5357610b74818761124f565b95855f5260038a52885f20885f528a5260ff895f20541615610ced575b6003850154808d11610cc25750908b94939291865f5260018b52895f209442610bbb908783611260565b83600187019e8f5490610bcd91610f01565b910154808211610c96575082878f938f93958e5f97889755610bfc610bf68b8d54841c16610f22565b8c610f3a565b519384928337810185815203925af199610c14610fcd565b9a15610c79575050610632979899549154871c169186519463ffffffff60e01b168552888501528584015260608301527fa3c875fa5ab2aa544e2b3aebaf21539163da0ed3ee9bc38b50840e96df0e32e060803393a451928284938452830190610e58565b906108e68b87938b519485946353f4183b60e11b8652850161100b565b8b5163865b5b3760e01b81528086018a8152602081019390935260408301919091529081906060010390fd5b89516348975f6d60e11b8152808501888152602081018f905260408101929092529081906060010390fd5b5f868152838b528981208982528b528981206001600160e01b0319891682528b528990205460ff16610b91578851630c796df760e01b81528084018781526001600160a01b038d1660208201526001600160e01b03198916604082015281906060010390fd5b8751630a9ba26760e41b81528083018681526001600160a01b038c16602082015281906040010390fd5b8751633c7a705d60e21b8152808301869052426024820152604490fd5b50826002850154164211610b47565b5086516282b42960e81b8152fd5b83602492630af1496960e11b8352820152fd5b602435906001600160a01b038216820361014857565b9181601f84011215610148578235916001600160401b038311610148576020838186019501011161014857565b90608060031983011261014857600435916024356001600160a01b0381168103610148579160443591606435906001600160401b03821161014857610e5491600401610de0565b9091565b91908251928382525f5b848110610e82575050825f602080949584010152601f8019910116010190565b602081830181015184830182015201610e62565b606090600319011261014857600435906024356001600160a01b038116810361014857906044356001600160e01b0319811681036101485790565b9181601f84011215610148578235916001600160401b038311610148576020808501948460051b01011161014857565b91908201809211610f0e57565b634e487b7160e01b5f52601160045260245ffd5b9060016001600160401b0380931601918211610f0e57565b9067ffffffffffffffff60401b82549160401b169067ffffffffffffffff60401b1916179055565b608081019081106001600160401b03821117610f7d57604052565b634e487b7160e01b5f52604160045260245ffd5b604081019081106001600160401b03821117610f7d57604052565b90601f801991011681019081106001600160401b03821117610f7d57604052565b3d15611006573d906001600160401b038211610f7d5760405191610ffb601f8201601f191660200184610fac565b82523d5f602084013e565b606090565b9081526001600160a01b03909116602082015260606040820181905261103392910190610e58565b90565b6040519061104382610f91565b60028252616f6b60f01b6020830152565b9291835f526020915f8352604094855f2060ff600882015416156111c9576001600160401b0380600183015460a01c1642109182156111b9575b505061117e575f818152600285528681206001600160a01b039093168082529285528690205460ff161561114e57805f5260038452855f20825f52845260ff865f20541661113d575f5260048352845f20905f528252835f209063ffffffff60e01b165f52815260ff835f2054161561110e575060019150611033611036565b731cd95b1958dd1bdc97db9bdd17d85b1b1bddd95960621b5f93519161113383610f91565b6014835282015290565b505050509050600190611033611036565b505050711d185c99d95d17db9bdd17d85b1b1bddd95960721b5f93519161117483610f91565b6012835282015290565b5050507f73657373696f6e5f6f7574736964655f74696d655f77696e646f7700000000005f9351916111af83610f91565b601b835282015290565b6002015416421190505f8061108e565b505050506f73657373696f6e5f696e61637469766560801b5f9351916111ee83610f91565b6010835282015290565b6024356001600160a01b03811681036101485790565b6044356001600160a01b03811681036101485790565b610104356001600160a01b03811681036101485790565b356001600160a01b03811681036101485790565b9060041161125b573590565b505f90565b90600292916112848254916001600160401b03958691015460401c16858316610f01565b8311611291575b50505050565b5f9360029316906001600160401b03191617815582600182015501555f80808061128b565b6084356001600160401b03811681036101485790565b6064356001600160401b03811681036101485790565b60a4356001600160401b03811681036101485790565b939592949190948415801561168c575b8015611674575b8015611650575b8015611638575b801561162e575b8015611621575b8015611619575b801561160f575b6115c9576001600160a01b03958661134f611224565b166115e75761012435158015906115db575b6115c9579691905b5f5b8281106115a3575060405160208101905f82526020815261138b81610f91565b519020975f935b8385106114ed57505050505060243594848616809603610148576044359480861680960361014857606435956001600160401b039687811680910361014857608435908882168092036101485760a435928984168094036101485761010435948516809503610148576040519a60208c01997f9e8ff48bb15364afbb611dcf05a5903fd00856f4fe34cd230d640930e9ebb55a8b5260408d015260608c015260808b015260a08a015260c089015260e088015260c43561010088015260e43561012088015261014087015261012435610160870152610144356101808701526101a08601526101c08501526101e09081850152835261020083019183831090831117610f7d57816040528251902061024261022084019361190160f01b85527f00000000000000000000000000000000000000000000000000000000000000006102228201520152604281526114e781610f62565b51902090565b90919293986114fd8a8386611768565b906040519060208201928391905f905b808210611578575050509061152f81600195949303601f198101835282610fac565b5190206115456115408d8988611744565b61123b565b908b604051926020840194855216604083015260609081830152815261156a81610f62565b519020990193929190611392565b90919283359063ffffffff60e01b82168092036101485760208160019382935201940192019061150d565b876115b661154083868d9697989d611744565b16156115c957600101979291909761136b565b60405163047aac8b60e51b8152600490fd5b50610144351515611361565b610144358015908115611602575b506115c957969190611369565b905061012435115f6115f5565b5086821415611339565b508115611332565b5060e43560c4351161132b565b5060e43515611324565b506001600160401b036116496112e2565b161561131d565b506116596112b6565b6001600160401b038061166a6112cc565b1691161115611316565b506001600160a01b0361168561120e565b161561130f565b506001600160a01b0361169d6111f8565b1615611308565b9160410361173e5760408101355f1a601b811061171e575b60ff1690601b82141580611713575b61170c57602092836080925f9460405193845282840152803560408401520135606082015282805260015afa15611701575f5190565b6040513d5f823e3d90fd5b5050505f90565b50601c8214156116cb565b601b0160ff8111156116bc57634e487b7160e01b5f52601160045260245ffd5b50505f90565b91908110156117545760051b0190565b634e487b7160e01b5f52603260045260245ffd5b91908110156117545760051b81013590601e19813603018212156101485701908135916001600160401b038311610148576020018260051b36038113610148579190565b9192909282158015611d22575b8015611d0a575b8015611ce6575b8015611cce575b8015611cc4575b8015611cb7575b8015611caf575b8015611ca5575b6115c9576001600160a01b036117fe611224565b16611c72576101243515801590611c66575b6115c9575b5f5b818110611c425750825f525f60205260ff600860405f200154166115c957602435946001600160a01b038616860361014857604435926001600160a01b038416840361014857606435956001600160401b038716870361014857608435916001600160401b03831683036101485760a435936001600160401b03851685036101485761010435956001600160a01b03871687036101485760405161016081018181106001600160401b03821117610f7d5760405260018060a01b038c16815260018060a01b03891660208201526001600160401b038b1660408201526001600160401b03861660608201526001600160401b038716608082015260c43560a082015260e43560c082015260018060a01b03881660e082015261012435610100820152610144356101208201526001610140820152895f525f602052610140600860405f2060018060a01b038451166bffffffffffffffffffffffff60a01b82541617815560018060a01b036020850151166001820154906001600160401b0360a01b604087015160a01b169163ffffffff60e01b16171760018201556119eb600282016001600160401b036060870151166001600160401b03198254161781556001600160401b0360808701511690610f3a565b60a0840151600382015560c084015160048201556005810160018060a01b0360e0860151166bffffffffffffffffffffffff60a01b8254161790556101008401516006820155610120840151600782015501910151151560ff80198354169116179055604051611a5a81610f62565b6001600160401b034216815260028a602083015f8152611aaa6001600160401b0360408601925f845260608701945f86525f5260016020528160405f209751168219885416178755511685610f3a565b516001840155519101555f5b818110611b49575050604080516001600160401b039a8b168152948a16602086015294909816938301939093525060c435606082015260e43560808201526001600160a01b0392831660a08201526101243560c08201526101443560e08201529282169590911693507f64a42bd90da480de356eb7aeaab559a90ce584ac1f88712fde1a44efd168e575916101009150a4565b611b57611540828488611744565b5f8b81526002602090815260408083206001600160a01b03851684529091529020805460ff19166001179055611b8e828587611768565b8092919215611c10575f5b818110611bae57505050506001905b01611ab6565b8d5f52600460205260405f2060018060a01b0384165f5260205260405f2090611bd8818487611744565b35916001600160e01b0319831683036101485760019263ffffffff60e01b165f5260205260405f208260ff1982541617905501611b99565b5060019291508b5f52600360205260405f2090838060a01b03165f5260205260405f208260ff19825416179055611ba8565b6001600160a01b03611c58611540838589611744565b16156115c957600101611817565b50610144351515611810565b610144358015908115611c98575b50156118155760405163047aac8b60e51b8152600490fd5b905061012435115f611c80565b50848114156117ea565b5080156117e3565b5060e43560c435116117dc565b5060e435156117d5565b506001600160401b03611cdf6112e2565b16156117ce565b50611cef6112b6565b6001600160401b0380611d006112cc565b16911611156117c7565b506001600160a01b03611d1b61120e565b16156117c0565b506001600160a01b03611d336111f8565b16156117b956fea26469706673582212207791b6df6f1f7ab7c0caf1f6a464a70ecc665dce81836d1b0cff45474cf8b3fe64736f6c63430008180033","linkReferences":{}},"methodIdentifiers":{"DOMAIN_SEPARATOR()":"3644e515","admin()":"f851a440","allowAllSelectorsForTarget(bytes32,address)":"c679c0ae","allowedSelectors(bytes32,address,bytes4)":"69e3e7af","allowedTargets(bytes32,address)":"9e3f000e","createSession(bytes32,(address,address,uint64,uint64,uint64,uint256,uint256,address,uint256,uint256),address[],bytes4[][])":"92b4481d","createSessionWithSig(bytes32,(address,address,uint64,uint64,uint64,uint256,uint256,address,uint256,uint256),address[],bytes4[][],uint256,bytes32,bytes)":"78d2ed8e","executeThroughSession(bytes32,address,uint256,bytes)":"30e95b76","executeTokenThroughSession(bytes32,address,uint256,bytes)":"4eace0a5","getCreateSessionDigest(bytes32,(address,address,uint64,uint64,uint64,uint256,uint256,address,uint256,uint256),address[],bytes4[][],uint256,bytes32)":"ff3ceedb","isAllowed(bytes32,address,bytes4)":"6fe9d6d7","revokeSession(bytes32)":"a7fed385","sessions(bytes32)":"7dbd2832","usages(bytes32)":"6f5bdf12","usedDigests(bytes32)":"d39c4de7"},"id":1}